:10000000A82C0020DD280000D9280000B12800001D
:1000100000000000000000000000000000000000E0
:10002000000000000000000000000000D9280000CF
:100030000000000000000000D9280000D9280000BE
:10004000D9280000D9280000D9280000210B000081
:10005000AD080000D9280000D9280000C50E000016
:10006000D50E0000E50E0000F50E0000050F0000A3
:10007000150F0000051E0000F51D0000E51D000025
:10008000D51D0000C51D0000B51D0000A51D000008
:10009000951D0000D9280000D9280000D9280000AB
:1000A000D928000008B5064B06480333191A06295B
:1000B00000D808BD044A002AFBD09047F9E7C046A3
:1000C0007C9D00007C9D00000000000008B50748F2
:1000D000074B191A8B10DA0FD118491000D108BD3F
:1000E000044B002BFBD09847F9E7C0467C9D0000ED
:1000F0007C9D00000000000010B5074C2378002B09
:1001000009D1FFF7CFFF0548002802D0044800E0DE
:1001100000BF0121217010BDD408002000000000A4
:100120007C9D000008B5094B002B03D00848094905
:1001300000E000BF08480168002903D0074A002AF0
:1001400000D09047FFF7C2FF08BDC0460000000086
:100150007C9D0000D80800207C9D0000000000006D
:10016000F0B583B06F46F87107370B4C0B4E201C6F
:10017000311C01220A4DA8478022D205094B5A6141
:10018000201C391C0122084B9847201C311C0022DE
:10019000A84703B0F0BDC046700B0020A40B0020A0
:1001A00025110000804400410D120000F0B58FB011
:1001B000604B98470020604B98476049604B9847D8
:1001C000830018184000802212055E4B5A610028F7
:1001D00000D19BE05C4B586000229A60191C802281
:1001E00052020B681342FCD095E00B681342FCD01E
:1001F000564C3123237000236370A37001A90122A0
:100200004A708B700A703120514B98472378D90976
:100210000022002903D15A09D2014A4952181F2746
:100220003B400124211C9940916101AA14700023D4
:100230005360936013745374947420215354079340
:10024000089380235B02D360424B536201235B42DD
:100250009362414BD362414B1363384B5361404E21
:10026000301C4049404B98473568281C3F4B984705
:100270000740BC403E4B1C603268138ADB0BDB033B
:100280009BB2002BF9D12A68022313432B60012370
:100290006A465370002269468A700B703E202C4CCF
:1002A000A0471B206946A04780221205254B9A6172
:1002B000A820304CA0471F20A047D320A0470020F3
:1002C000A0474020A047A120A047C820A047DA208F
:1002D000A0470220A0478120A0478F20A047A4204C
:1002E000A047A620A047D520A0478020A0478D206A
:1002F000A0471420A047DB20A0474020A047D920DA
:10030000A047F120A047AF20A04710E080221205AF
:100310000C4B9A616CE7802212050A4B9A610A4BDA
:10032000586000229A60191C802252025DE70FB0CB
:10033000F0BDC046C50300009126000040420F00FA
:10034000152D00000044004110E000E0A40B002047
:1003500035220000020030000300360003003700A1
:10036000700B0020001C00422D0F0000990E0000B1
:1003700000E100E061010000F0B583B06F46F87164
:1003800007370B4C0B4E201C311C01220A4DA8478D
:100390008022D205094B9A61201C391C0122084B8E
:1003A0009847201C311C0022A84703B0F0BDC0466E
:1003B000700B0020A40B0020251100008044004198
:1003C0000D12000010B50020084B9847084CFA2188
:1003D0008900A047074B1860FA218900A047064B07
:1003E00018600522054B1A6010BDC046912600001A
:1003F000152D0000040000200000002010E000E0A7
:10040000014B18607047C046F0080020024B1B6883
:10041000C0014118CA547047F0080020024B1B6805
:10042000C0014018185C7047F0080020F0B557462E
:100430004E464546E0B4141C8218802A03DD802411
:100440006442241AE4B2002C51D0CD08EF00C91B3D
:1004500001278F40391CFFB2012B04D0002B19D08B
:10046000022B44D12DE001388246234B9946234B81
:1004700098465346E618F6B2281C311CC847384344
:10048000C2B2281C311C0023C047013CE4B2002C3E
:10049000EFD12CE001388246174B9846CF435346A4
:1004A000E618F6B2281C311CC0473840C2B2281CDE
:1004B000311C0023114EB047013CE4B2002CEED1B8
:1004C00015E0013882460C4B99460C4B9846534632
:1004D000E618F6B2281C311CC8477840C2B2281C66
:1004E000311C0023C047013CE4B2002CEFD11CBCFE
:1004F00090469946A246F0BDED0600004906000070
:10050000F8B54F464646C0B4051C161C1C1C08AB6B
:100510001F78002C0ED001398946084B98464B466F
:10052000E118C9B2281C321C3B1CC047013CE4B294
:10053000002CF4D10CBC90469946F8BD2D04000067
:10054000F0B55F4656464D464446F0B485B0061CAD
:100550008846141C9B461A7A5B7A0021009140461B
:10056000211C234DA84759460B78002B39D10A7A14
:10057000D308510700D001335A46557A927AB61AF9
:100580006E435E43B6B25B465B689E19A246072186
:1005900089465B460393AB4603990F7A002F16D02A
:1005A0000024002542461019C0B24B46234201D117
:1005B000357801366BB2002B03DA514601220D4B20
:1005C00098476D00EDB20134E3B29F42EAD853463A
:1005D0000133DBB29A465B46013BDBB29B46002B04
:1005E000DAD105B03CBC90469946A246AB46F0BD78
:1005F00001050000F9060000F8B54F464646C0B4B4
:10060000041C894690461F1C0E1C20780A2806D11F
:100610007B7A01334344DBB298464E4609E00D280D
:1006200007D0311C42463B1C064DA8473B7AF618C2
:10063000F6B2013420780028E7D10CBC90469946E8
:10064000F8BDC04641050000F8B5051C0C1C161C81
:10065000002B03D10D4B9847B04216D0281C211C0B
:10066000321C0B4B98470F273D40B023281C1843E2
:10067000084DA8476006400F10231843A847381CB0
:100680002040A847301C044B9847F8BD1D040000CB
:100690000D0400006101000079030000F8B50E4868
:1006A0000E4B98470E4B984740200E4B984700251D
:1006B00000260D4F0CE0281C211C321C0123B847DA
:1006C0000134E4B2802CF6D10135EDB2042D01D015
:1006D000341CF0E7F8BDC046F40800200104000017
:1006E000AD010000610100004906000008B5014BA2
:1006F000984708BD1D040000F0B5474680B4041CAF
:10070000151C43B2002B23DB1F2921D8CE08F7008C
:10071000C91B01278F40FBB29846301C211C0E4B91
:100720009847021C012D04D0002D06D0022D0AD1BD
:1007300006E043461843C2B205E0B843C2B202E045
:1007400043465840C2B2301C211C0023034CA04732
:1007500004BC9046F0BDC046ED060000490600000E
:10076000054B197802220A431A701A1C53785BB29F
:10077000002BFBDB7047C0460018004000B583B07B
:10078000124B996940220A439A6101A900230B7018
:1007900003200F4B984703200E4B98470E4B1978B8
:1007A00001220A431A701A1C53785BB2002BFBDB40
:1007B0000A4B191C4031002204C38B42FCD1102289
:1007C000074B1A60074B984703B000BD0004004078
:1007D000A92700001D27000000180040A80B0020DA
:1007E00000E100E061070000F0B583B0051C0C1CBF
:1007F00001A900234B70CB7063680B70237A8B7058
:100800002078154B984700231F2D00D8134B072144
:1008100029408900E07AA27A002A01D008221043F8
:10082000EA0806329200D65888400F278F40BE4310
:10083000311C0143D150627A002A06D05A69012145
:10084000A9400D1C15435D6104E05A690121A940CE
:100850008A435A6103B0F0BD8128000000180040AF
:100860001723002A0ED18A00074BD258002A03D141
:100870008900C850002305E01D23121A501E824132
:1008800052421340181C7047A80B00201723002960
:1008900007D100231F2800D8034B01228240DA60D1
:1008A0000023181C7047C04600180040F0B54746AA
:1008B00080B4164D00241F229046012700261F2CCD
:1008C0000ED917E0124A00E0321C13612B68002B8E
:1008D00000D098470134E4B20435102CEFD112E077
:1008E000434623403A1C9A40131C094A12691A4293
:1008F000E8D1EFE7434623403A1C9A40131C326983
:100900001A42E1D1E6E704BC9046F0BDA80B0020F6
:100910000018004010B50A7952044B799B051A4320
:100920008B781B031A43CC88C388E31A9B061A43AF
:10093000131C0079002805D1C878002802D0802334
:100940005B021343487880010A781043184310BDB6
:1009500010B58C0EC388E318D3808B011B0F537125
:100960008B02DB0E13710379002B03D0CB03DB0E5C
:10097000937005E00B041B0F9370CB03DB0FD37058
:100980000B059B0E53703F231940117010BDC046DC
:1009900010B50168082480230B4AD4500268937A6A
:1009A0005BB2002BFBDB0B88022293430B800023FE
:1009B000037443740268937A5BB2002BFBDB0A88F2
:1009C000012313430B8010BD00E100E010B5046863
:1009D000034B9847A37A5BB2002BFBDB206110BD71
:1009E0001509000038B50A1C05684379002B06D1AB
:1009F000054B6B800468A37A5BB2002BFBDB296993
:100A0000024B984738BDC0460080FFFF51090000E7
:100A100070B50E1C151C04681723012A0CD8074B4F
:100A20009847A37A5BB2002BFBDB0335ED0028511E
:100A3000337A641923710023181C70BD1509000056
:100A400030B583B0041C151C01601C4B9969202231
:100A50000A439A6101A902230B700220184B9847A0
:100A60000220184B9847201C174B98472B7923716D
:100A7000EB786371EB88E380144B1C6023682A8851
:100A80002979002902D008210A4301E048210A43BC
:100A9000A978002901D080210A431A80EA78002A27
:100AA00004D059888022D2010A435A80291C083177
:100AB000201C0022064B984703B030BD00040040C4
:100AC000A92700001D27000091090000E80B002065
:100AD000110A0000012A02D001D917200AE0931C54
:100AE0009B001950037C012191400A1C1A43D2B289
:100AF000027400207047C04610B50268012902D177
:100B00008023D37104E001231C1C8C402340D3714B
:100B1000437C01228A40111C1943C9B2417410BDA3
:100B200010B50E4B1B681C68597C1A7C081C1040C1
:100B3000217AE2790A40D10906D0810701D5DB6824
:100B400098478023237207E0D10705D5C20701D556
:100B50009B6898470123237210BDC046E80B002014
:100B600038B5151C4C08402384420BD34300081CA5
:100B7000191C054B9847013880B24023FF2801D843
:100B800028800023181C38BD152D0000000000002F
:100B9000F8B54F464646C0B484468846161C08AA97
:100BA00010786246424340278A4244D2002B14D137
:100BB00000216246244CA047011C0020424600232D
:100BC000224CA0471F4B1E4A141C1D1C241A8D4189
:100BD000220C2B04141C1C432BE000240025012BA9
:100BE00027D14F0FB946CB0098460021624600231B
:100BF000154FB847021C0B1C40464946134FB847D7
:100C0000C208134B9A4210D9013801231049C20877
:100C10008A4206D90133DBB20138082BF7D14027CD
:100C200009E04027082B01D105E000235B031C1CD1
:100C3000144334800027381C0CBC90469946F8BDFC
:100C40000000000001000000F52D0000B52D00009F
:100C5000FF1F0000C046C04610B582B0041C0F4BF9
:100C60001B78002B01D000290DD001A90C700C209D
:100C70000B4B98470C200B4B9847084B5C7001229C
:100C80001A70002007E0054B5A781D20141B621EC5
:100C900094416442204002B010BDC046F40A0020D6
:100CA000A92700001D270000404B984230D006D8ED
:100CB0003F4B98420DD03F4B984269D119E03E4BD3
:100CC000984245D03D4B984252D03D4B98425FD11F
:100CD0002EE001295ED0002905D0022905D0002090
:100CE000032962D103E037485FE037485DE03748C9
:100CF0005BE0012950D00320002956D0022903D0FF
:100D0000032903D0002050E031484EE031484CE048
:100D1000012943D0002905D0022905D0002003294C
:100D200043D103E02C4840E02C483EE02C483CE016
:100D3000012935D0002905D0022905D0002003293A
:100D400033D103E0274830E027482EE027482CE045
:100D5000012927D0002905D0022905D00020032928
:100D600023D103E0224820E022481EE022481CE074
:100D7000012919D0002905D0022905D00020032916
:100D800013D103E01D4810E01D480EE01D480CE0A3
:100D900000200AE01C4808E01C4806E01C4804E06B
:100DA0001C4802E01C4800E01C487047001000424C
:100DB00000080042000C004200180042001C0042E3
:100DC00000140042030004000300060003000700B3
:100DD00003001E0003001F000300080003000A00B8
:100DE00003000B00030010000300120003001300B7
:100DF00003000C0003000E0003000F0003001600A8
:100E0000030018000300190003000500030001009F
:100E1000030009000300110003000D000300170088
:100E20007047C04670B586B00B4A6B4670CA70C337
:100E300032CA32C3009E864205D001AA012302CAEB
:100E4000814203D100E00023D8B203E00133062B36
:100E5000F5D1002006B070BDBC990000F0B50A4B7A
:100E60001B78002B0CD1094F094E0A4D0024DE518E
:100E70005A1914600433182BF9D10122024B1A704D
:100E80008000024BC150F0BDF80A0020FC0A00208F
:100E9000210E0000EC0B002010B582B0041C684647
:100EA000054918310622054B9847201C044B9847EA
:100EB0006B46185602B010BDBC99000059370000AF
:100EC000250E000008B5024B1B680020984708BD9E
:100ED000FC0A002008B5024B5B680120984708BD5A
:100EE000FC0A002008B5024B9B680220984708BD09
:100EF000FC0A002008B5024BDB680320984708BDB8
:100F0000FC0A002008B5024B1B690420984708BD65
:100F1000FC0A002008B5024B5B690520984708BD14
:100F2000FC0A0020036802229A737047F0B5574606
:100F30004E464546E0B488B0051C0C1C161C2960C2
:100F40000B681C20990700D5CDE023680520DA073F
:100F500000D5C8E0201C674B9847674B196A821C74
:100F6000012797403A1C0A431A6207A92027F35D1C
:100F70000B700D30C0B28046604B98474046604BC6
:100F80009847F05D00215F4B98473378012B03D1E0
:100F900022680C23134323603378002B6FD122681F
:100FA0000823134323606AE0534604339A46043B04
:100FB00001CB002803D14846391C534A9047431CB3
:100FC00005D02070000CC0B2211C504A90477B1CF9
:100FD000DFB2042FE8D133786B71337CAB71B37C13
:100FE000EB7100226B46DA803378012B15D128682B
:100FF000404B98470D30C0B2454B9847011C706973
:101000006A460632434B9847031C1720002B6AD1CF
:101010006B4606331B78484683723378002B10D119
:101020007169338B4A465069F47E2404B27E2243B0
:10103000024348464261327F002A04D040221343D3
:1010400001E000230021B26870680243F0680243A7
:101050000A43317C0B43717C002901D080210A4373
:10106000B17C002902D0802189020B4348460168E7
:101070000A430260426813434360002033E00023C8
:10108000EB602B616B61AB61EB616B622B620024E7
:10109000AB852B852E23EC542F23EC543023EC54BA
:1010A00003232B722C712868124B9847071C1A498E
:1010B0001A4B9847BF001A4BFD502968894602AB6E
:1010C00080221A705C7001229A70DC70726A03923E
:1010D000B36A0493F06A0590316B069103AA9246B5
:1010E000002702AC60E708B01CBC90469946A246B7
:1010F000F0BDC046250E000000040040A9270000F6
:101100001D270000590C0000A90C000081280000D8
:10111000C5270000610B0000451400005D0E0000B3
:10112000EC0B002030B544791523012C69D1002A3D
:1011300058D04B78002B45D00268937BDC070FD446
:101140000B78D9090022002903D15A09D2012E4D6A
:1011500052191F210B40012199409161052350E054
:101160000B78DA090024002A03D15C09E401264A3D
:10117000A4181F2213400122151C9D4065618C7824
:101180000368997B0A4200D01C83C2790023002A9D
:1011900037D102680421937B1942FCD0917B002354
:1011A0004C072ED5138A5D0703D5118A04230B4300
:1011B00013828379012B02D1138B002321E0138B3F
:1011C00000231EE00B78D9090022002903D15A0917
:1011D000D2010D4952181F210B4001219940516144
:1011E00000230EE00B78D9090022002903D15A0907
:1011F000D201054C12191F210B4001219940916128
:101200000023181C30BDC04600440041F0B55F46C5
:1012100056464D464446F0B485B0041C8846151C1D
:101220003023C35C0520052B00D1FBE01720002AEA
:1012300000D1F7E06379002B06D12068837B990702
:1012400002D5201C7B4B9847029500207A4A924693
:1012500001230226B34604274246039294E06279B2
:10126000002A01D0216817E02668B27B134206D11C
:10127000724AB17B0B4202D1013A002AF9D1B27B0A
:101280005946114204D0201C6A4B98470420C9E0FB
:10129000B27B1342E6D1BCE08A7B1342FCD06246AB
:1012A000165C421C92B29046A279012A01D04046B7
:1012B00006E062464244127812021643023080B2BF
:1012C0008A7B134202D0F605F60D0E836A1E91B298
:1012D000E279002A5DD06279002A3CD1584A039E07
:1012E000B446009521688E7B334220D065462D5C44
:1012F0000195461CB5B2A846A679012E03D00198E7
:101300008146281C08E0654645442D782D02019E43
:101310003543A946023080B28E7B334203D04D461E
:10132000ED05EE0D0E83009D013DADB200952168E7
:101330008E7B374202D1013A002AD3D1009D8A7BAD
:101340005E46164204D0201C3A4B9847042069E0C0
:101350008A7B17425FD021688A7B1742FCD08A7B48
:1013600017420DD00A8A174204D00A8A0426324353
:1013700092B20A82A279012A01D10A8B00E00A8B7B
:10138000029A013A92B20292013DADB203998C46A3
:1013900000E00D1C554500D061E7029A6379012BEE
:1013A00006D1216802228B7B1A42FCD0002039E052
:1013B000002B32D1E3790020002B33D0002A1ED13C
:1013C00030E08A7B104202D1013B002BF9D18B7BAC
:1013D000184224D08B7B18420CD00B8A184203D0C1
:1013E0000B8A33439BB20B82A379012B01D10B8B68
:1013F00000E00B8B013FBFB2002F04D111E00420AD
:101400000E4D0426029F21688B7B1842DFD12B1CD6
:10141000D7E7122006E0122004E0002002E01220AC
:1014200000E0002005B03CBC90469946A246AB4681
:10143000F0BDC046250F0000FFFF00001027000090
:1014400011270000F8B58000664BC45825682E238C
:10145000E35C2F22A25C171C1F40AE7B6B7B1E40FF
:10146000F10746D56379012B15D1237A002B0ED1D4
:101470005D4B1B882B83638D013B9BB26385638D22
:10148000002B01D101232B736379012B03D1237A24
:10149000002B05D12DE0002B2BD1237A002B28D057
:1014A0002268636A1978581C6062A079012804D107
:1014B00058780002014302336362CB05DB0D1383CE
:1014C000A38D013B9BB2A385A38D002B11D10123DA
:1014D0002B73237A012B0CD1E379002B09D1032341
:1014E000237200223023E254FA0702D5201CE3685D
:1014F000984771075FD52B8A5A0714D5237A012B99
:101500000BD01E223023E2540323237205232B73B6
:101510003B0702D5201CA16988472B8B2A8A04230C
:1015200013432B8247E0237A012B15D12268138BBA
:10153000638D013B9BB26385638D002B3BD10423FC
:101540002B7300223023E25403232372FB0732D58E
:10155000201CE16888472EE023681A8BD205D20D43
:10156000D3B2216A0B70236A591C2162A179012927
:1015700004D1120A5A70236A01332362238D013B7E
:101580009BB22385238D002B15D100223023E254FA
:1015900004232B73237A022B05D17A070BD5201C49
:1015A0006369984707E0237A002B04D1B90702D575
:1015B000201C22699047B30713D56379002B10D103
:1015C00007232B730223AB73032323720023A3850A
:1015D000238530230022E254F90602D5E369201C5A
:1015E0009847F8BDEC0B0020040C0020F0B55F46D6
:1015F00056464D464446F0B48DB0051C0C1C161CD6
:101600002960081C804B984721680523CA0700D52C
:10161000F1E022681C23970700D5ECE07B4B196AA8
:10162000821C012797403A1C0A431A620BA9737F58
:101630000B700D30C7B2381C754B9847381C754B72
:101640009847707F0021744B9847F37A6B71337D14
:10165000AB71737DEB712F680397381C6A4B984709
:101660000D3000226B46DA8231688946F268924674
:10167000B37D98467368002B14D0802252059342A4
:101680002ED1F37D002B01D02A682EE03769C0B23D
:10169000624B9847011C381C6A461632604B9847CB
:1016A000031C1EE0F37D002B0AD010230093306949
:1016B000B1696A46163200235A4FB847031C10E03E
:1016C00031698B46C0B2554B9847011C10230093DB
:1016D00058466A4616320023524FB847031C00E0B2
:1016E0000023002B00D086E0CEE7138ADB0BDB0360
:1016F0009BB2002BF9D16B4616331B88039F7B816D
:10170000524649460A4373681A4347467B071A43C1
:10171000F37D002B01D104231A43707D0004337D37
:101720005B041843F17AB37A0B4318433389FF2BD8
:1017300003D0802149040A431843337F002B01D092
:1017400080231A4329680B8ADB0BDB039BB2002B37
:10175000F9D1039F786029680B8ADB0BDB039BB20E
:10176000002BF9D1039F3A600AAB80221A70002245
:101770005A7001219970DA70316A0691726A079283
:10178000B36A0893F66A099606AFB94600270AAE0F
:10179000494604318946043901C9002803D1201C77
:1017A000391C214A9047431C05D03070000CC0B250
:1017B000311C1E4A90477B1CDFB2042FE8D1002366
:1017C000AB60EB602B61AB616B610022EB83AB83A1
:1017D0002023EA542123EA542223EA542323EA54FF
:1017E0002868094B9847041C1149124B9847A400DC
:1017F000114BE5500023181C0DB03CBC9046994697
:10180000A246AB46F0BDC046250E000000040040D5
:10181000A92700001D270000590C0000C527000063
:10182000610B0000910B0000A90C00008128000052
:10183000CD1800005D0E0000EC0B00200368C28391
:10184000816105212322815401225A737047C046C9
:1018500003688283416105212222815404225A7344
:101860007047C046931C9B001950012393401A1CDB
:101870002023C15C0A43C2547047C04610B51723E9
:10188000002A0AD0C48B0523002C06D1C4791C235E
:10189000002C02D0024B98470023181C10BDC046F4
:1018A0003D18000010B51723002A0AD084791C23A4
:1018B000002C06D0848B0523002C02D1024B9847C4
:1018C0000023181C10BDC04651180000F8B5800058
:1018D000484BC5582C68238ADB0BDB039BB2002BDB
:1018E000F9D1A67B637B1E402123EB5C2022AA5CFE
:1018F000171C1F40F10720D5EB8B002B1BD0AB69C9
:101900001A78111C5A1CAA616A79012A01D00A1C92
:1019100003E05A7812020233AB61D305DB0D238357
:10192000EB8B013B9BB2EB83002B06D1012323738E
:101930000223637301E001232373B20709D5022355
:10194000237300222323EA54FB0702D5281CA9682D
:10195000884772074CD5AB8B002B47D0238A590799
:1019600022D09A0707D51A222223EA54228A022378
:101970001343238212E0590707D51E222223EA547B
:10198000228A04231343238208E0DA0706D51322B0
:101990002223EA54228A0123134323827B0727D57B
:1019A0002B69281C984723E0228BD205D20DD3B295
:1019B00069690B706B69591C69616979012904D1E6
:1019C000120A5A706B6901336B61AB8B013B9BB29E
:1019D000AB83002B0CD10423237300222223EA546F
:1019E000BA0705D5EB68281C984701E00423237348
:1019F000F8BDC046EC0B002070B588B00C4A6B46B1
:101A000070CA70C332CA32C342CA42C3009B834207
:101A100005D001AA012302CA814203D100E00023BC
:101A2000D8B203E00133082BF5D1002008B070BD17
:101A3000DC990000F0B54F464646C0B489B0041C9E
:101A40000D1C9046081C924B98478146914F391CBB
:101A5000203106A80822904EB047391C283102A830
:101A60001022B0470023A360E36023616361237603
:101A7000637648468200894BD450256041468B7876
:101A8000082B04D117204A46D20700D5FBE023716A
:101A90002B880520D90700D5F5E0EB7B1C20DA0662
:101AA00000D5F0E02B88990700D5ECE04246137C86
:101AB000002B0CD001A901238B700022CA70404674
:101AC000007E08704B704246107D754B984740462B
:101AD000037F002B0ED001A901238B700022CA7056
:101AE0002422424412780A704B7020234344187811
:101AF0006B4B98476B4B1A6A4946480002A9415AFA
:101B00000A431A6242469378082B08D1654B1A6A39
:101B100048460130400002A9415A0A431A62404631
:101B2000037869460B7006AB4A469E5C301C5E4BE0
:101B30009847301C5D4B9847434698881B8918434B
:101B400041468A798B78134318434B78002B02D097
:101B500080231B01184321687F22CB7B9343FCD158
:101B600028804246507B431E98418000937B002B87
:101B700001D00123184321687F22CB7B9343FCD102
:101B8000FF232B71002805D021687F22CB7B934354
:101B9000FCD168714346987ADB7A002B01D0102380
:101BA000184341460B7B002B01D0202318432168AA
:101BB0007F22CB7B9343FCD1A87122687F21D37B0A
:101BC0008B43FCD12379D9B2042904D0082940D011
:101BD000002925D056E07F21D37B8B43FCD12823DD
:101BE0004246D35C2B7421687F22CB7B9343FCD18C
:101BF00029234046C35C2B7521687F22CB7B93430E
:101C0000FCD12A234146CB5C2B7621687F22CB7BFB
:101C10009343FCD12B234246D35C6B76002032E009
:101C20007F21D37B8B43FCD14046038D2B822168DF
:101C30007F22CB7B9343FCD141464B8D2B83216884
:101C40007F22CB7B9343FCD14246938D6B83002054
:101C500019E07F21D37B8B43FCD143469B6A2B61E8
:101C600021687F22CB7B9343FCD14046C06AA861A8
:101C700021687F22CB7B9343FCD141460B6BEB6108
:101C8000002000E0172009B00CBC90469946F0BD3A
:101C9000F9190000DC99000059370000080C0020F9
:101CA0008128000000040040A92700001D27000033
:101CB00030B504687F25E37BAB43FCD10379D8B210
:101CC000042804D0082813D0002808D018E01720D2
:101CD000012916D8D2B261180A76002011E0172027
:101CE00001290ED892B20C3149000A53002008E0B5
:101CF0001720012905D8063189000A51002000E08B
:101D0000172030BD931C9B001950022A04D1027E7B
:101D10001023134303760CE0032A04D1027E202310
:101D20001343037605E0012393401A1C037E1A43F4
:101D3000027600207047C04638B58000144BC45866
:101D40002268937B257E1D40637E1D40EB0705D5F1
:101D5000201CA2689047012322689373AB0705D526
:101D6000201CE2689047022322689373EB0605D596
:101D7000201C22699047102322689373AB0605D577
:101D8000201C62699047236820229A7338BDC046A0
:101D9000080C002008B50720014B984708BDC04635
:101DA000391D000008B50620014B984708BDC04604
:101DB000391D000008B50520014B984708BDC046F5
:101DC000391D000008B50420014B984708BDC046E6
:101DD000391D000008B50320014B984708BDC046D7
:101DE000391D000008B50220014B984708BDC046C8
:101DF000391D000008B50120014B984708BDC046B9
:101E0000391D000008B50020014B984708BDC046A9
:101E1000391D000008B5074B1B78002B05D1AF20FA
:101E2000054B98470122034B1A700022034B1A708E
:101E300008BDC046140B002061010000280C0020E2
:101E400008B5AE20054B9847054B196904220A4393
:101E50001A610022034B1A7008BDC04661010000E0
:101E600000ED00E0140B002008B5034B1B78002B9D
:101E700001D1024B984708BD140B0020151E00002D
:101E800008B5054A13780133DBB21370092B01D969
:101E9000024B984708BDC046280C0020411E000098
:101EA00010B586B004AC1048211C104B9847A2789E
:101EB00063782178009102A80D490E4CA04702A832
:101EC000002100220C4B0D4CA0470D4B18688021BF
:101ED000090242181A600B4800210B4B98470B4B24
:101EE000984706B010BDC0462C0C0020E509000044
:101EF000149A0000BD37000008000020F90500001A
:101F0000180B0020400C0020B11C0000811E0000B6
:101F100010B5044B9847044800211022034B044C91
:101F2000A04710BD691E0000249A00000800002090
:101F3000F905000000B583B00379224A9B18417867
:101F4000FA2292004A439A18837864214B43D218AC
:101F5000C3789900CB185B00D3186A46D380827986
:101F6000103A43799900CB185B00D3186A46537135
:101F7000027A103AC3799900CB185B00D3186A46ED
:101F80001371827A103A437A9900CB185B00D31808
:101F90006A469370027B103AC37A9900CB185B00B3
:101FA000D3186A465370827B103A437B9900CB1852
:101FB0005B00D3186A46137003486946034B984781
:101FC00003B000BDB02F00002C0C0020CD09000094
:101FD00030B589B005AC8278103A43789900CB18B7
:101FE0005B00D318A3700279103AC3789900CB181C
:101FF0005B00D31863708279103A43799900CB184B
:102000005B00D3182370032323720D4D281C211C61
:1020100000220C4B9847281C00210B4B9847A278B4
:1020200063782178009102A80849094CA04702A8CA
:1020300000211022074B084CA04709B030BDC04614
:102040002C0C0020110A0000F90A0000309A000050
:10205000BD37000008000020F905000010B586B06B
:1020600001AAA0231B01138000239370D370FA21CF
:10207000C900D1801372537293726846C3730123EF
:1020800013735373D1810621117413710C4C201CEE
:102090000C490D4B9847216808220C4B1A600A1C0A
:1020A000937A5BB2002BFBDB0A88022313430B807D
:1020B000034807490022074B984706B010BDC046A9
:1020C0002C0C002000140040410A000000E100E058
:1020D000111F0000D50A000010B58EB001AA002320
:1020E0009370002193809171138151709172D1721C
:1020F000117391735173117453619361117713626A
:1021000053621385938501235B425385012313702A
:10211000074C201C0749084B984722687F21D37B36
:102120008B43FCD1118802230B4313800EB010BDEA
:10213000400C002000380042351A000010B50D4C4C
:10214000201C0D4902220D4B984720680C4B9847E4
:102150000C4B1B5C1F221A40012393401A1C0A4B94
:102160001A60627E102313436376236810225A7329
:1021700010BDC046400C0020A11E0000051D00003F
:10218000F9190000449A000000E100E00C4B1B68C4
:10219000002B10D1EFF31083002B09D172B6BFF3DF
:1021A0005F8F0022074B1A700122074B1A7002E062
:1021B0000022054B1A70024B1A6801321A607047F0
:1021C0001C0B002014000020200B0020084B1A6874
:1021D000013A1A601B68002B09D1064B1B78002BB3
:1021E00005D00122044B1A70BFF35F8F62B67047AF
:1021F0001C0B0020200B002014000020F0B583B041
:1022000001AC012565700027A77025700E20211CE8
:10221000064EB0478022D201054B9A612770657047
:102220000F20211CB04703B0F0BDC046352200008E
:102230000044004100B583B001AB80221A700A78D7
:102240005A704A789A708A78DA70191C014B98474C
:1022500003B000BD8128000008B507282BD88000F6
:10226000174B1B589F468020000227E0154BD8686B
:1022700024E0154B186A8005800F144BC340181CCE
:102280001CE0104B186919E00E4B1B6800209A07E0
:1022900014D50D491022CB681A42FCD0094B1B689B
:1022A0005A070AD500200A4B9847064B9B681B0427
:1022B0001B0C584302E0002000E0064808BDC04661
:1022C0004C9A0000240B00200008004000127A0005
:1022D000C5270000006CDC0230B50C4B1C6A02788C
:1022E0000321114009020A4A14400C43817801225B
:1022F0001140C9018025AC430C4341780A4091014B
:1023000040229443221C0A431A6230BD0008004058
:10231000FFFCFFFF10B51E4B9C8A43780722134039
:102320001B021C4A14401C430378002B02D10423D7
:102330001C4301E004239C43827801231A4052018C
:1023400020218C431443C2781A40120110218C437F
:10235000144302791A40D20008218C431443427B73
:102360001A40D20180218C431443027B1A4092010F
:1023700040218C431443827B13401A030649231CDB
:102380000B4013438168054A1161014A938210BDD5
:1023900000080040FFF8FFFFFFEFFFFF240B0020C5
:1023A00007283BD880001E4B1B589F46002036E074
:1023B0001C4B196A02220A431A6200202FE0194BB3
:1023C000996902220A439A61002028E0154B198A74
:1023D00002220A431A82002021E0124B998A02222B
:1023E0000A439A8200201AE00F4B196802220A431E
:1023F0001A601A680D4B1A400A4B9A84191C102255
:10240000CB681A42FCD0084A9168064BD9625168E1
:102410009962126892B29A84002000E017207047F7
:102420006C9A000000080040240B00207FFF000091
:10243000072814D880000B4B1B589F4601200FE043
:10244000012006E0022004E0102002E0082000E065
:102450000420054BDB681840431E984100E0002033
:102460007047C0468C9A000000080040F0B547460F
:1024700080B488B0334A344B9A60344B5A681E217A
:102480008A435A6004A800230370837080221202DA
:102490008260012202710373837306214170C2704E
:1024A00043732B4B984705202A4B98472A4C05200D
:1024B000A0470028FBD0244B998A80220A439A82A5
:1024C00003A800244470012787700470234B9847A9
:1024D0000620204B9847224B984701976A46547034
:1024E00014725472052398461370012069461D4EDC
:1024F000B04701201C4DA8476A46547014725472AC
:10250000434613702023019302206946B0470220FE
:10251000A847164B1C721A7804218A431A705C7201
:102520009C7201976A465470062313701472547299
:1025300000206946B0470020A84708B004BC904678
:10254000F0BDC046103600000008004000400041C9
:1025500015230000A123000031240000D92200002F
:1025600071250000952500004D2600000004004064
:10257000064B996908220A439A610122044B1A709A
:10258000191C0B781A42FCD17047C0460004004069
:10259000000C004070B5061C0C78240204434B78F4
:1025A000002B02D08023DB021C434B7A002B02D08D
:1025B00080231B031C434D68012D18D96B1E1D423F
:1025C0000FD1022D06D90223002201325B009D4269
:1025D000FBD800E000221502354380235B031C4337
:1025E00006E02D02354380239B021C4300E0351C8E
:1025F0000B7A002B02D080239B031C430F4A537895
:102600005BB2002BFBDB0E4B98470E4B1E700B4A48
:1026100053785BB2002BFBDB084B9D601A1C537890
:102620005BB2002BFBDB054B5968802252020A404B
:1026300014435C60044B984770BDC046000C0040DA
:102640008D210000080C0040CD21000010B5041CB5
:102650000B4A53785BB2002BFBDB0A4B98470A4BC3
:102660001C70074A53785BB2002BFBDB044B5968A4
:10267000802252020A435A60044B984710BDC0465C
:10268000000C00408D210000040C0040CD21000012
:1026900070B5041C1A4A53785BB2002BFBDB194B54
:1026A0009847194B1C70164A53785BB2002BFBDB22
:1026B000134E7068C004C00E144B9847051C124B93
:1026C0001C707668F602F60F114B1C700C4A53789A
:1026D0005BB2002BFBDB0A4B9C682402240C0D4BE5
:1026E0009847002E07D1012C07D9281C211C0A4B22
:1026F0009847051C01E00134E540281C70BDC04628
:10270000000C00408D210000040C00405922000004
:10271000080C0040CD210000152D000010B5041C50
:10272000064B9847064B1C70064B59888022D201F5
:102730000A435A80044B984710BDC0468D210000C3
:10274000020C0040000C0040CD21000010B5041C1C
:102750000F4B98470F4B1C700F4B58880005000F0C
:1027600059880E4A0A405A8059880D4A0A405A80B0
:10277000191C8022D2014B881342FCD1064B010266
:102780005888064A02400A435A80064B984710BDB3
:102790008D210000020C0040000C0040FFF0FFFF04
:1027A000FFBFFFFFCD21000010B50C7824020443C9
:1027B000024B9847A4B2024B5C8010BD4D2700002D
:1027C000000C004010B5041C064B9847064B1C70CB
:1027D000064B5C882405240F054B9847201C054BAD
:1027E000984710BD8D210000020C0040000C0040F5
:1027F000CD2100009126000030B5D4780023002CB4
:102800001ED11378802B04D01B068024640223433E
:1028100000E000235478002C01D0022C0AD19478D7
:10282000002C03D18024A402234302E0C024E4024C
:10283000234341605478013C012C01D80F4C2340C4
:102840000D042D0CA024E4052C431C4384620D0CC4
:10285000D02424062C431C438462D478002C0CD151
:102860005C0305D59378012B01D1816100E04161C2
:102870005378013B012B00D8816030BDFFFFFBFF87
:1028800008B5031C0A1CC1090020002903D15809FE
:10289000C001044940181F210B4001219940024BFF
:1028A000984708BD00440041F92700007047C04622
:1028B000FEE7C04608B5044B9847044B9847044BC5
:1028C0009847044B984708BD6D240000FD21000087
:1028D000AD2800007D070000FEE7C04608B5194B93
:1028E000194A9A4203D0194B164A9A4204D3184BFC
:1028F000184A9A420FD31BE0134A174B134903316E
:10290000C91A890801318900043BC91801CA01C3E9
:102910008B42FBD1EBE7114B0D490331C91A8908F2
:1029200001318900043BC918002204C38B42FCD149
:102930000B4B7F210B4A8A439A600B4B98470B4BFA
:102940009847FEE7000000207C9D0000D40800208E
:10295000A80C0020D408002004000020D808002083
:1029600000ED00E0000000000D370000592C0000D1
:10297000064B1B68002B02D1054A044B1A60034A20
:10298000136818181060181C7047C046380B0020D8
:10299000A82C002010B5044B9847044800211022B1
:1029A000034B044CA04710BD151E0000DC9A00002C
:1029B00008000020F905000010B5044B98470448B2
:1029C00000211022034B044CA04710BD151E00002F
:1029D000E89A000008000020F905000010B5044B3B
:1029E0009847044800211022034B044CA04710BD17
:1029F000151E0000F49A000008000020F9050000F0
:102A000010B5044B9847044800211022034B044C96
:102A1000A04710BD151E0000009B0000080000200C
:102A2000F9050000F0B54F464646C0B49DB018AA5F
:102A3000234B111C181C70C870C10068086000226C
:102A4000149215921692179210A91A1C1032081C93
:102A500070CA70C0126802600CAA2033111C31CBFE
:102A600031C11B680B606C46002500270126B1466A
:102A7000012080464A466272A77218ABEB58236069
:102A800014ABEB586360434623720323E37210AB2D
:102A90005E5D301C211C0B4B98470CABE858311C79
:102AA0003A1C094B9847301C391C084B98470C348A
:102AB0000435102DDED11DB00CBC90469946F0BDFA
:102AC000AC9A0000E9070000610800008D080000D2
:102AD0008022D201014BDA617047C04600440041B8
:102AE00008B5084B1B78DAB2012A02D0022A07D1B6
:102AF00003E00448044B984702E00248034B984720
:102B000008BDC046840C0020351F0000D11F000006
:102B10000022054B1A70054B191C20311A70013325
:102B20008B42FBD17047C046810C0020840C0020F2
:102B300008B50B4B98470B4B1B781F2B0BD80A4A39
:102B400012780A2A07D0084A1178084AD15401336A
:102B5000044A137003E0064B9847064B984708BD9C
:102B6000691E0000810C0020800C0020840C0020D5
:102B7000E12A0000112B000030B58DB08023DB0569
:102B8000009300230193FF2269460A818B72CB7266
:102B900096229201049201220A754A758B75CB75B3
:102BA00006930B774B77C4239B03039301235B426C
:102BB00008930993134B0A93134B0B93134D144C27
:102BC000281C211C6A46134B98470028F8D10F4D4A
:102BD0002C68201C104B98471F231840012383406A
:102BE000181C0E4B18602A68138ADB0BDB039BB2A0
:102BF000002BF9D12268022313432360084B984726
:102C00000DB030BD02001800020019005C0C00205D
:102C100000140042ED150000990E000000E100E0F4
:102C2000112B000038B5084C201C08490022084D23
:102C3000A847201C07490122A8472123E15C032261
:102C40000A43E25438BDC0465C0C0020D12A000083
:102C500065180000312B000070B584B01C4B9847FC
:102C60001C4B98471C4B98471C4B98471C4B98474C
:102C700002A900230B704B708B70CB7001240C7178
:102C80004C71FA23DB00CB801648174B9847174B43
:102C90009847174B9847174B9847174B1C70BFF333
:102CA0005F8F62B6154B9847154B1A6800929B8848
:102CB0006A469380134869460622134B9847114E83
:102CC000124D134C301C291C0122A047FAE7C046C4
:102CD000B52800009D060000792B0000252C00007F
:102CE0005D2000002C0C0020CD090000D920000040
:102CF0003D210000252A000014000020151E0000C0
:102D00000C9B00005C0C00207D180000800C002053
:102D1000A5180000002934D00123002210B48842F5
:102D20002CD301242407A14204D2814202D20901FA
:102D30001B01F8E7E400A14204D2814202D249001B
:102D40005B00F8E7884201D3401A1A434C08A042BE
:102D500002D3001B5C0822438C08A04202D3001B54
:102D60009C082243CC08A04202D3001BDC0822436B
:102D7000002803D01B0901D00909E3E7101C10BC8F
:102D80007047002801D00020C04307B4024802A1C8
:102D90004018029003BDC046190000000029F0D081
:102DA00003B5FFF7B9FF0EBC4243891A1847C04666
:102DB0007047C046002B11D1002A0FD1002900D145
:102DC000002802D00021C943081C07B4024802A110
:102DD0004018029003BDC046D9FFFFFF03B4684608
:102DE00001B5029800F046F8019B9E4602B00CBC6B
:102DF0007047C0469C460304F0B51B0C17043F0CFB
:102E0000150C1E1C041C000C7E436B4347434543BA
:102E1000FB18300C1818874202D980277B02ED1866
:102E2000070CED1967467C434A433604330CA1185E
:102E300000044919C018F0BDF8B54F464646C0B465
:102E40001D1C141C061C0F1C00F030F8814688461F
:102E50004346291C4A46201CFFF7CCFF089B361A24
:102E60008F411E605F60484641460CBC90469946C3
:102E7000F8BDC046F8B54F464646C0B41D1C141CEC
:102E8000061C0F1C00F0FAF92B1C221C81468846F8
:102E9000FFF7B0FF089B361A8F411E605F604846FF
:102EA00041460CBC90469946F8BDC046F0B54D462B
:102EB00044465F465646F0B41C1C85B000250029E8
:102EC00000DAE2E0002C00DAD8E083460F1C9246DC
:102ED0001E1C141C80468946002B5AD18A426DD98B
:102EE000101C00F091FB00280CD02023191A5A4620
:102EF0003E1CCA408640171C37435E4686408440CD
:102F0000B946B046260C2004030C311C48469B46AB
:102F1000FFF700FF59464143071C8A464846311CCB
:102F2000FFF73CFF42460804130C1843824509D9B9
:102F30000019791E844200D97EE1824500D87BE1E8
:102F4000023F00195246831A181C311C9A46FFF79B
:102F5000E1FE5946414381468B465046311CFFF7FE
:102F60001DFF464632040804130C184383450BD951
:102F70004E460119013E8C4200D95FE18B4500D8D5
:102F80005CE102246042814438044F463843002605
:102F900003E08B4265D900260020021C331C002D63
:102FA00003D0311C002342428B41101C191C05B078
:102FB0003CBC90469946A246AB46F0BD002A04D1DF
:102FC00001200021FFF7A6FE041C201C00F01CFBC2
:102FD000002862D14F4623043E1B180CB146270C33
:102FE00000900126391C4846FFF794FE009A82465D
:102FF0004243391C48469346FFF7D0FE4346090436
:10300000180C01438B4508D952460919013A8C42E4
:1030100002D88B4500D928E192465A46881A391CB5
:103020008346FFF777FE0099814641435846009159
:10303000391CFFF7B3FE47463B04009F08041A0CF7
:103040001043874208D94B460119013B8C4202D8F4
:103050008F4200D90EE19946524610044F4638433C
:103060009BE7181C00F0D0FA041E6ED1BE4202D3BA
:10307000DA4500D98FE7002601208EE7161C1F1CB9
:10308000ED4300237242BB411FE7051C0E1C0021CB
:103090006842B14101256D4214E720210B1A4746D1
:1030A000DF404E464A46DE4082408440391C43465B
:1030B00083401143270C2004020C0191301C391C61
:1030C00098460092FFF726FE009982464143301C45
:1030D0008946391CFFF762FE019E0904330C19432F
:1030E00089450CD95046091901388C4200D9BAE0FB
:1030F000894500D8B7E002225642B24409194B462E
:10310000C81A391C8146FFF705FE0099061C414389
:1031100048468B46391CFFF741FE019A0904130407
:10312000180C01438B4509D90919721E8C4200D92C
:1031300095E08B4500D892E0023E09195B46524665
:10314000C81A110481460E434CE720231B1A52462D
:10315000DA408640164350465A46DA40A040391CB1
:10316000D9400090131CA74030043B438946370CDC
:10317000010C02914846391C0193FFF7CBFD029ADE
:1031800082464243391C48469346FFF707FE019B9F
:103190000904180C01438B450AD952468919013A92
:1031A0008E425ED88B455CD90223584282448919ED
:1031B0005A46891A0391081C391CFFF7ABFD029B84
:1031C000391C4343814603989B46FFF7E7FD019F67
:1031D00009043804020C11438B450AD94B4689195E
:1031E000013B8E4239D88B4537D90227784281443A
:1031F00089195E4653468A1B1804494608430099BC
:1032000093460A040704120C3B0C060C0F0C111C0D
:10321000594372437B437E43D3180F0C8C46D91914
:103220008A4202D980225302F6180F0CF2199345F4
:1032300010D305D00026B0E60F1C83E6B146A3E606
:10324000664643463704A34009043A0C1C1C8B18FD
:103250009C42EFD2013800269FE69946C9E7161C2A
:103260006CE79246A4E7824649E70223584282442B
:103270000919D2E6022460428144EDE6F0B55F46CA
:103280004D4644465646F0B4914683B0041C0F1C8C
:103290009846151C061C8B46002B55D18A426BD9CB
:1032A000101C00F0B1F900280AD020223B1C211C80
:1032B000171AF94083400C1C1C438540A3468640E6
:1032C0002C0C2804030C211C58469946FFF722FDBC
:1032D0004F4680464743211C5846FFF75FFD300CA0
:1032E000090401438F420CD943464919013B8D42E1
:1032F00000D95FE18F4200D85CE102225042804455
:103300004919CF1B381C211CFFF704FD4B464343D2
:10331000BA46211C071C50469B46FFF73FFD36046A
:103320000C04310C21438B4508D948197A1E85427B
:1033300000D93DE1023F834500D839E145462804E4
:103340000023384398460FE08B420AD8181C00F03F
:103350005BF9051E60D1B84500D225E1A14500D832
:1033600022E10025A8460020414603B03CBC90461F
:103370009946A246AB46F0BD002A04D101200021A7
:10338000FFF7C8FC051C281C00F03EF9002800D0FF
:10339000B3E07C1B01212F04A2463F0C2C0C884675
:1033A000211C5046FFF7B6FC83467843211C81461A
:1033B0005046FFF7F3FC330C08041843814508D945
:1033C0005A464019013A854202D8814500D915E193
:1033D00093464A46801A211C8146FFF79BFC211C1C
:1033E000824647434846FFF7D9FC36040C04320CAA
:1033F000224397420BD953465019013B854200D9CD
:10340000DAE0874200D8D7E002256F42BA44594635
:10341000080454462043A7E74646202386404A46F0
:10342000181AC2401643221CC24049463B1CC340E6
:10343000A940101CAF409B4638430091370C310423
:103440000B0C0190391C58469A46FFF763FC524614
:1034500042438146391C58469046FFF79FFC019B2A
:1034600009041A0C1143884506D9484689190138C0
:103470008E4200D8B6E081464046091A8B46081CA9
:10348000391CFFF747FC53464343391C80465846D6
:103490009A46FFF783FC019F09043804030C194383
:1034A0008A4506D942468919013A8E4200D891E0F0
:1034B000904656464A468B1B1004414608430099E5
:1034C00007040E04360C020C9B463B0C0F0C311CFF
:1034D000594356437B437A43F3180F0C8C46D91952
:1034E0008E4202D980267302D2180F0CD619B3452A
:1034F0006CD363D00024A04636E720210B1A261C8B
:10350000DE4085403A1C311C8740DA403943261C96
:103510002C0C00918640211C101C9346FFF7FAFBEF
:103520002F043F0C81467843211C82465846FFF702
:1035300035FC009B09041A0C11438A450AD94846F8
:10354000491901388D4257D88A4555D902235A4224
:10355000914449195046091A8B46081C211CFFF753
:10356000D9FB031C7B438046211C58469A46FFF733
:1035700015FC009A09041004030C19438A450AD962
:1035800042464919013A8D4234D88A4532D902203F
:1035900043429844491952464846891A0304424610
:1035A0001A438A469046FBE6002080460120DBE66F
:1035B000171CC3E69846A4E69A4628E7AC400D04DB
:1035C00061460B041A0CAF18BC4293D20026013896
:1035D000B046C9E68A4500D86AE7022778428044A7
:1035E000891966E7884500D845E702235A42914485
:1035F000891941E79046CEE78146ABE702214B426D
:103600009B444019E5E6C0461C2101231B04984257
:1036100001D3000C10391B0A984201D3000A083963
:103620001B09984201D30009043902A2105C40181A
:103630007047C046040302020101010100000000BE
:1036400000000000F7B51E1C234B171C1A68051C50
:10365000141CFC34E06C0191002803D1A621480021
:103660001018E06443681F2B16DD1C4A002A02D1A3
:10367000012040422FE0C821480000E000BF0028A0
:10368000F6D0E26C002302604360C622E064C424EA
:1036900061005400435003514368002D14D0041CB2
:1036A000883499000F51C2277A0082185768012187
:1036B00099400F4357601F1C2037BF003E51022D19
:1036C00002D19568294391609E1C0199B400013391
:1036D000215043600020FEBD149B0000000000004C
:1036E00038B5084B084C1D1CE01A8410002C06D07D
:1036F000A1006A18043A13689847013CF6E706F0FF
:1037000031FB38BD709D0000749D000070B50E4BFC
:103710000E4D0024E81A85101E1CAC4204D0A100F6
:10372000725890470134F8E706F012FB0849094A3D
:103730000E1C541AA5100024AC4204D0A300F0586B
:1037400080470134F8E770BD5C9D00005C9D00007F
:103750005C9D0000649D000010B50023934203D0DF
:10376000CC5CC4540133F9E710BD8218031C9342AA
:1037700002D019700133FAE7704700000CB410B59D
:103780009CB01EAB822404CB029102AA0691A40035
:10379000094994810124049107916142D181111C4E
:1037A0001E9A019300F02CF8029A002313701CB0AB
:1037B00010BC08BC02B01847FFFFFF7F0EB400B575
:1037C0009CB01DAB02A904CB82220290086192003A
:1037D00009488A810122886048615042074AC881AD
:1037E00010681D9A019300F00BF8029900230B70EA
:1037F0001CB008BC03B01847FFFFFF7F1800002073
:10380000F0B5C5B00C911F1C151C0D9001F04CFFBC
:1038100000681A9002F0A0FD199000200021149079
:1038200015910C9CA389180612D5216900290FD186
:103830000D98402101F050FF20602061002804D144
:103840000D9B0C261E6000F085FF0C9E40227261CD
:10385000002034AC279429902890129510901D9048
:103860001C901390129D2B78002B03D112996E1A85
:1038700004D11DE0252BF9D00135F4E729982899CA
:10388000129A8319013122606660299328910729D1
:1038900001DC083409E00D980C9927AA02F064FDB8
:1038A000002801D000F052FF34AC139A96191396F9
:1038B0002878002801D100F041FF01356B461295B0
:1038C0007B33002501211D704E4217950995129AF0
:1038D000129D1078013508901295089820385828C4
:1038E00000D990E303F0A4FB59008F038F0360001D
:1038F0008F038F038F038F038F038F0362006B008F
:103900008F03690070008F03970099009900990058
:103910009900990099009900990099008F038F03ED
:103920008F038F038F038F038F038F038F038F0307
:10393000C600F4008F03F4008F038F038F038F03FF
:10394000AB008F038F0354028F038F038F038F030A
:103950008F03BA028F038F03E2028F038F038F035B
:103960008F038F038F038F038F038F038F03BD009C
:10397000CA00F400F400F400AD00CA008F038F0306
:10398000AF008F033A0258027B02B8008F039E02F9
:103990008F03BE028F038F03E0026B467B331878E0
:1039A000002894D120220DE0012056E03968043728
:1039B000179100298BDA4D42179504204DE06B4694
:1039C0002B227B331A7082E7129E129A33780132CF
:1039D0000893089912922A2908D13E68381D071CBD
:1039E000002E00DB73E70126764270E70020089D79
:1039F000303D092D09D80A235843129A4019129DC7
:103A00001178013508911295F1E7061E00DB64E795
:103A10000126764261E780201FE000230A20129AE7
:103A20004343089D1178303D089112985B19089D19
:103A30000130303D1290092DF0D917934DE7082041
:103A40000BE0402009E0129A13786C2B02D101326E
:103A5000129201E0102000E02020099A024309920E
:103A600035E73E682AAB6D461E707B3500262E700A
:103A70000437D2E20998102108430990099B9D065A
:103A800009D5FB1D07218B431F1C08371A685B688B
:103A90000A920B930CE0099D391D3A68ED0603D498
:103AA000099F7D0600D512B2D0170A920B900F1C09
:103AB0000B9D002D00DB31E20A980B990023424256
:103AC0008B410A920B936B462D217B33197025E2B3
:103AD000F81D0727099B089AB843099D071C0E93F8
:103AE000169208372D0704D502684368149215937F
:103AF00003E00168426814911592159D149B149877
:103B0000291C189302F0D8FB012812D1149815999A
:103B1000BE4BBD4A03F00CFB002803D06B462D20A2
:103B20007B331870089D472D01DCB9490DE0B94978
:103B30000BE01498159902F0BFFB00280CD1089EE9
:103B4000472E01DCB44900E0B449099E8022964327
:103B50000F910996032565E2701C08D00898672824
:103B600001D0472804D1002E02D1012600E006260C
:103B7000099A80214B001A43002009921B9085422C
:103B800004DA80231A062D21AD181B9108986628A7
:103B900008D0462806D0652801D0452805D1731CD9
:103BA000109303E01096032201E010960222109970
:103BB000009220A821AB22AA0191029003930492C3
:103BC0000D98189A2B1C00F07AFE08990F9067291F
:103BD00001D047290BD10E98C30708D422990F981A
:103BE000089A0D1A1095209B672A30D132E00F9B5E
:103BF000109A089899181191662801D0462813D177
:103C00000F9B1A78302A0BD11898291C7F4B7E4ABB
:103C100003F088FA002803D110990120431A209359
:103C2000119A2098111811911898291C774B764AEF
:103C300003F078FA002801D0119D2295229B119A59
:103C40009342CBD230221A7001332293F6E70899BF
:103C5000472908D11D1CD81C01DBB3425EDD089D3D
:103C6000023D089502E00898662845D008AE3078F5
:103C700023A95D1E0870209501312B22002D01DA49
:103C80006D422D220A70092D1FDD6E469A36281CC2
:103C90000A21119603F02CFA30313170281C0A21C8
:103CA00003F0D0F9013E051E092DF0DC119B3035E3
:103CB000013B6E461D708E3668469B3083420BD2A8
:103CC0001D78013335700136F6E730216B468E33AF
:103CD0006D1819705D7024AE23AA1099B31A1C9345
:103CE0005D18012904DC0E9800261196C3072BD518
:103CF00000220135119227E01D1E07DD002E02D1A2
:103D00000E99C9071DD501369D191AE0002E03D161
:103D10000E9A01252A4214D0B51C12E01098834255
:103D200006DB0E9A67201690D2070AD55D1C08E0C4
:103D30000122002B01DC0225EA1A109967268D1852
:103D400016961193169B08931B9B0026B34200D135
:103D50006AE168462D217B30017065E1099B3E1DBB
:103D60009D0605D5139D3F68E9173D6079600DE01C
:103D70000998C50607D4099D6D0604D513A93F68A7
:103D80000A883A8002E03B6813981860371C69E59E
:103D9000099D10210D4309950998202303400AD05D
:103DA000FB1D07229343186859680A900B911F1C4A
:103DB00008370023ADE0099A10211140381D002971
:103DC00008D1099D40232B4004D03F880B910A97CE
:103DD000071CEEE739680B930A91071C99E03B68D2
:103DE000099A0A9302231A43002109920C4A1FA838
:103DF0000B91302578210570417004371D92089190
:103E000087E0C046C046C046000000000000000039
:103E10003A9B00003E9B0000429B0000469B000036
:103E20005B9B000069467B3100223B1C0A701868CE
:103E300004370F90002E0CDB0021321C01F040FEF5
:103E4000002800D1EDE00F9D451BB54200DDE8E004
:103E5000E8E00F9802F080FA051CE3E009981023CF
:103E600018430990099D20222A4009D0FB1D0720F4
:103E700083431F1C08371A685B680A920B9311E092
:103E8000099B10211940381D002907D1099D4022A6
:103E90002A4003D03F880B910A9702E039680B92C1
:103EA0000A91071C012334E0BB4900E0BB49099B90
:103EB00020221D911A4009D0FD1D07218D432F1C82
:103EC0002A686B6808370A920B9311E0099D10204D
:103ED0002840391D002807D1099B40221A4003D0F1
:103EE0003F880B900A9702E038680B920A900F1CEB
:103EF00009980223C5070CD50A9D0B990D4308D0DC
:103F000008AD29781FAA302010705170099A1A4301
:103F10000992694600257B310D7000E00123002ED7
:103F200003DB099D8020854309950A9A0B990A4372
:103F300001D1002E55D06D46CF35012B1ED0022B5E
:103F400039D00A990B9A07230B405007C908D208A9
:103F500008430F9530330B92011C2B700A900F9D74
:103F60000B98013D0143ECD1099AD10745D5302B7F
:103F700043D02B1C0F9530251D703EE00B9B002B72
:103F800004D10A9A092A01D8303234E00A980B99F0
:103F90000A2200230F95FEF70DFF0A980B99303285
:103FA0002A700A220023FEF705FF013D0A900B91BB
:103FB0000843EBD121E00A981D990F2202408B5C47
:103FC0000B9A2B700B9B11070209180911430B90D8
:103FD0000A1C0A910B990F950A43013D002AEAD168
:103FE0000BE034A80F90002B07D1099BDD0704D507
:103FF0006D46CF3530222A700F950F9A34AD0021CF
:10400000AD1A119110E0089E002E00D196E32AAB64
:1040100069461E707B3100260E70012511960F93A4
:1040200002E0351C00261196281EB04200DA301C32
:104030006A467B3213780222591E8B410999C018B7
:1040400011401890169101D083181893099A842072
:1040500002401B9237D11799189BC81A0E9000285E
:1040600031DD4F490E9A2160102A18DD2999289ACE
:10407000102310310132636029912892072A01DC54
:10408000083408E00D980C9927AA02F06DF9002871
:1040900000D05BE334AC0E9810380E90E1E7299B1A
:1040A000289998180131626029902891072901DC2C
:1040B000083408E00D980C9927AA02F055F9002859
:1040C00000D043E334AC6B467B331A78002A15D01A
:1040D00023602999289B01200131013360602991D7
:1040E0002893072B01DC083408E00D980C9927AAC7
:1040F00002F03AF9002800D028E334AC169A002ADE
:1041000016D0299B289A1FA8022102330132206071
:10411000616029932892072A01DC083408E00D9891
:104120000C9927AA02F020F9002800D00EE334AC45
:104130001B9880283FD11799189BCA1A0E92002A03
:1041400039DD17480E9910302060102918DD2999A3
:10415000289A102310310132636029912892072A8E
:1041600001DC083408E00D980C9927AA02F0FCF84D
:10417000002800D0EAE234AC0E9810380E90E0E748
:10418000299B28985A1801306160299228900728A5
:1041900008DC08340FE0C0465B9B00004A9B00002F
:1041A0001A9B00000D980C9927AA02F0DDF8002850
:1041B00000D0CBE234AC761B002E2FDDC449103189
:1041C0002160102E16DD299A289810211032013016
:1041D000616029922890072801DC083408E00D98D6
:1041E0000C9927AA02F0C0F8002800D0AEE234AC47
:1041F000103EE3E7299B289A666001329E192996B2
:104200002892072A01DC083408E00D980C9927AAA7
:1042100002F0AAF8002800D098E234AC0998C20550
:1042200005D40F9E2999656026604D1965E0089DAB
:10423000652D00DCB1E114981599A44BA24A02F057
:1042400071FF00285BD0299D289AA24E01210135DB
:1042500001322660616029952892072A01DC083422
:1042600008E00D980C9927AA02F07EF8002800D0EB
:104270006CE234AC2098109B984203DB099EF50752
:1042800000D410E2199D299A289B1A99A818013385
:104290002160656029902893072B01DC083408E031
:1042A0000D980C9927AA02F05FF8002800D04DE283
:1042B00034AC109D013D002D00DCF4E1844E10363D
:1042C0002660102D16DD2998289B1022103001330E
:1042D000626029902893072B01DC083408E00D98D0
:1042E0000C9927AA02F040F8002800D02EE234AC46
:1042F000103DE3E7299965604D1929953DE1209B23
:10430000002B6FDC299E289A724901250136013263
:104310002160656029962892072A01DC083408E0AC
:104320000D980C9927AA02F01FF8002800D00DE282
:1043300034AC2098002806D1109B002B03D109999A
:10434000CD0700D4AFE1199E299A289B1A9DB01879
:1043500001332560666029902893072B01DC08341F
:1043600008E00D980C9927AA01F0FEFF002800D064
:10437000ECE134AC20994D42002D2FDD544E103627
:104380002660102D16DD2998289B1022103001334D
:10439000626029902893072B01DC083408E00D980F
:1043A0000C9927AA01F0E0FF002800D0CEE134AC40
:1043B000103DE3E7299A2898656001305519299541
:1043C0002890072801DC083408E00D980C9927AAEA
:1043D00001F0CAFF002800D0B8E134AC0F9B10995F
:1043E00023605AE10F9A109E11989619B51A8542CA
:1043F00000DD051C002D15DD299B28980F995A1901
:1044000001302160656029922890072801DC08347A
:1044100008E00D980C9927AA01F0A6FF002800D00B
:1044200094E134ACE943CB17119A1D40551B002D84
:104430002FDD274810302060102D16DD2998289B8D
:10444000102210300133626029902893072B01DC81
:10445000083408E00D980C9927AA01F085FF002880
:1044600000D073E134AC103DE3E72999289B6560E7
:1044700001334D1929952893072B01DC083408E0F6
:104480000D980C9927AA01F06FFF002800D05DE17C
:1044900034AC0F9A11982099109B1518994202DBA1
:1044A000099AD30721D51A9819992060299B289831
:1044B000CA18013061602992289007280CDC083462
:1044C00013E0C046C046C0460000000000000000E7
:1044D0001A9B00006C9B00000D980C9927AA01F014
:1044E00043FF002800D031E134AC109B2099761BAB
:1044F0005A1A964200DD161C002E14DD2560289BFA
:10450000299D0133A819666029902893072B01DCA7
:10451000083408E00D980C9927AA01F025FF00281F
:1045200000D013E134ACF143109D2098CA17164017
:104530002B1A9D1B002D00DCB5E08B49103121604A
:10454000102D16DD299B2899102010330131606051
:1045500029932891072901DC083408E00D980C996B
:1045600027AA01F001FF002800D0EFE034AC103D95
:10457000E3E7299A656056192996289D0135289503
:10458000072D00DC8EE00D980C9927AA01F0ECFEB7
:10459000002800D0DAE034AC85E01099012903DC72
:1045A000099E01231E426DD0299B289E0F9D01214B
:1045B000013301362560616029932896072E01DCBE
:1045C000083408E00D980C9927AA01F0CDFE0028C8
:1045D00000D0BBE034AC199D2998289B1A9A291861
:1045E00001332260656029912893072B01DC083490
:1045F00008E00D980C9927AA01F0B6FE002800D01B
:10460000A4E034AC14981599564B554A02F08AFD33
:10461000109D013D002806D10F9E299A0136656044
:10462000266055191FE0002D34DD4F4E10362660F0
:10463000102D15DD2999289B102010310133606061
:1046400029912893072B01DC083407E00D980C9979
:1046500027AA01F089FE002878D134AC103DE4E7A8
:10466000299A656055192995289D01352895072DAA
:104670000FDD0D980C9927AA01F076FE002865D170
:1046800034AC07E029980F9A0130226063602990CA
:10469000EAE7083423A81C9920606160299E7118FC
:1046A00029916AE70834099A55070BD41898179A84
:1046B000904200DA101C139B299C1E181396002CA4
:1046C00037D02FE01798189BC51A002DEEDD264E27
:1046D0002660102D15DD2998289B102210300133FB
:1046E000626029902893072B01DC083407E00D98BD
:1046F0000C9927AA01F038FE002827D134AC103DD0
:10470000E5E76560299C6119289D29910135289567
:10471000072DCBDD0D980C9927AA01F025FE002866
:10472000C4D013E00D980C9927AA01F01DFE0028B3
:104730000CD10021289134ACFFF794F8299C002C6F
:1047400004D00D980C9927AA01F00EFE0C9FBD898C
:10475000680602D501214A421392139845B0F0BD74
:1047600000000000000000001A9B0000C046C04688
:1047700008B5034B002B02D0024800F005F808BD35
:1047800000000000E136000008B5011C0020021CFA
:10479000031CFEF757FF08BDF0B50B690E1C01693D
:1047A00087B0051C0027994200DA85E0321C5C1EA8
:1047B000033398001432291C0192143132180391EA
:1047C00051682818131D013140680593FEF7A2FABD
:1047D0000090B8423CD0019A039B944602970497FC
:1047E000614604318C46043980C9009AB8B25043FE
:1047F00002990818390C009F020C794351180A0CD1
:104800001F680292049ABFB2BF181A6880B2381AA1
:1048100089B2170C7A1A0714D2191114170480B22E
:10482000059A3843049101C39445D9D9231D9900B1
:104830006F1878683B1D00280AD1039A043B934205
:1048400001D82C6104E019680029FAD1013CF4E791
:10485000281C311C01F06AFB00282CDB009E039B06
:10486000013600960020019F1A6840CF91B201974F
:104870000818B7B2C11B120C360C971B08143A1853
:104880001604101489B2019F059A0E4340C3974243
:10489000E9D9231D98002E187168331D00290AD10B
:1048A000039F043BBB4201D82C6104E01A68002A34
:1048B000FAD1013CF4E7009F381C07B0F0BDF0B519
:1048C000016C9DB00790259D08920993002909D09D
:1048D000436C01229A404B608A6001F029F90799E4
:1048E00000200864099E002E05DA01239E40DE4068
:1048F0002B60099601E000272F60099FC04D3A1CEC
:104900002A40AA421ED1BF4C249D08992C60002940
:1049100003D13A0304D0BC4803E0BB4F0A9701E03F
:10492000BA480A90269E002E01D100F078FD0A9B1D
:10493000DC78191C0331002C00D00531269D29603C
:1049400000F06DFD089C099DA44BA34A201C291C66
:1049500002F0E8FB00280DD0249A2698012111606E
:10496000002801D100F059FDA94B0360013B0A93D7
:1049700000F055FD1BA81AA9009001910798221C70
:104980002B1C01F0C1FB7E000B90760D0AD0A14BD1
:104990002903A14D201C00220C0B191C2143761960
:1049A00019921AE01A9C1B9B9C4DE618AE4209DB3B
:1049B0009B49089B9B4D7418E340AA1B181C974009
:1049C000384303E0984F0898BA1B904004F0E4F98C
:1049D000964C01250919013E1995814A814B03F036
:1049E000EBFD814A814B03F075FB814A814B02F05C
:1049F000C7FB071C301C0C1C04F094F97E4A7F4B4B
:104A000003F068FB021C0B1C381C211C02F0B8FBD5
:104A1000071C0D1C04F052F9704B6F4A0690291CBC
:104A2000381C02F085FB00280DD0069804F07AF9B6
:104A30000B1C021C291C381C02F074FB4142414132
:104A40000698431A0693069C01221892162C11D838
:104A5000774DE700E91908684968089A099B02F050
:104A60007BFB002805D00698002301380690189398
:104A700000E018901A9A961B013E04D57442002754
:104A800004940D9702E000250D96049506990029DF
:104A900006DB0D9F15917D1800210D950F9107E004
:104AA0000498069B0024C21A5E4204920F96159445
:104AB00022980124092826D8052802DD04382290EE
:104AC000002422980238032825D802F0A7FA060FFE
:104AD0000204012202E0012309E00022239E149235
:104AE000002E21DD0E960C96331C22E00023239D20
:104AF000069914936818031C01330E900C93002B35
:104B000017DC012315E061420027229714940E91CF
:104B10000C91122306E001235E4214930E960C962C
:104B200012230027239704E001270E970C973B1CC4
:104B30002397079A0020506404252E1C079F1436E3
:104B4000796C9E4204D8079F013179646D00F4E7C7
:104B5000381C00F0C5FF0C9B0A9038640E2B00D95E
:104B60007FE1002C00D17CE1089C099D16941795EB
:104B7000069D002D60DD291C0F2739402C4A069C1C
:104B8000C80013181D685E6810951196261102253D
:104B9000284CF00617D516981799226A636A02F016
:104BA0009FFE3E400890099103250CE0F10708D5CF
:104BB000109811992268636803F08CFA1090119193
:104BC000013576100834002EF0D108980999109A12
:104BD000119B02F085FE4DE0000000000000000087
:104BE000000000000000F83F61436F63A787D23FD9
:104BF000B3C8608B288AC63FFB799F501344D33FCC
:104C00000000F07F0F270000779B00006E9B0000E4
:104C10006D9B00000000F03F01FCFFFFEFFBFFFF7A
:104C2000120400000EFCFFFFEEFBFFFF000010FE71
:104C3000989B0000889C0000069902254E42002E99
:104C40001AD00F203040CE4AC700D31916981799B2
:104C50001A685B6803F03EFACA4C3611002E09D080
:104C6000F20704D522686368013503F033FA761041
:104C70000834F3E708900991189E002E1ED0089E74
:104C8000099FB64BB44A301C391C02F051FA002877
:104C900014D00C99002911D00E98002800DCDCE01B
:104CA000069A301C013A1092391CAD4AAD4B03F004
:104CB00011FA0135089009910E9E02E0069F0C9EA4
:104CC0001097281C04F02EF8089A099B03F002FAAA
:104CD000A54AA64B02F054FAAB4D041C4F193D1CDB
:104CE000002E1AD1A24AA34B0898099903F064FC3C
:104CF000221C3B1C0890099102F02EFA002800D0DB
:104D000058E2221C80242506089809997B1902F094
:104D10000FFA002800D044E29FE09949721E1498CF
:104D2000D300CF1800284AD03A687B68924893494C
:104D300002F0D6FD221C2B1C03F03EFC089C099DB2
:104D4000129013910A9F291C201C03F0B7FF0890B2
:104D500003F0E8FF021C0B1C201C291C03F02CFC98
:104D6000089A041C30323A70129A139B0D1C0137BA
:104D700002F0DEF9002800D03EE3221C2B1C77490C
:104D8000754803F019FC129A139B02F0D1F9002820
:104D900000D0C8E00A983B1AB3425EDA1298139921
:104DA0006F4A704B03F096F96D4A6E4B1290139157
:104DB000201C291C03F08EF9041C0D1CC3E7386865
:104DC0007968221C2B1C03F085F9089C099D129020
:104DD00013910A998E1908960F1C291C201C03F0A8
:104DE0006DFF061C03F09EFF021C0B1C201C291CDF
:104DF00003F0E2FB3036089A3E700137041C0D1CAC
:104E0000974223D15C4A5D4B1298139902F0B8F98E
:104E1000021C0B1C201C291C02F09EF9002800D04B
:104E200084E0129A139B5448544903F0C5FB021CBA
:104E30000B1C201C291C02F07BF900280DD0781EC9
:104E40000378302B00D0D7E2071CF8E7444A454BE3
:104E500003F040F9041C0D1CBFE7169A179B08923B
:104E600009931B98002800DA9FE0069B0E2B00DDBB
:104E70009BE0434EDD00771939687A68049105920A
:104E8000239A002A14DA0C9B002B11DC00D08AE153
:104E9000374A384B0498059903F01CF9089A099B86
:104EA00002F064F90C9D2E1C002800D07DE184E105
:104EB0000A9F089C099D049A059B201C291C02F04E
:104EC0000FFD03F0FBFE061C03F02CFF049A059B6C
:104ED00003F000F9021C0B1C201C291C03F06CFBC6
:104EE000021C301C30300B1C0A9C0C9938700137A6
:104EF0003D1B101C8D4249D1191C02F041F9049A46
:104F0000059B041C0D1C02F027F9002812D1201C5F
:104F1000291C049A059B02F005F9002800D16DE2D6
:104F2000F50707D46AE2109E069603E010990691F1
:104F300000E01F1C7B1E1A78392A07D10A9EB34253
:104F4000F7D1069830210130069031701C78013479
:104F50001C7053E2C046C046000000000000F03F55
:104F600000000000000024400000000000001C4081
:104F70000000000000001440000000000000E03FBE
:104F8000989B0000889C00000000C0FC191CBD4BD1
:104F9000BB4A03F09FF8BC4ABC4B041C0D1C02F03A
:104FA000C1F8002800D186E728E2149E002E31D0F7
:104FB000229901290BDC199D002D02D0B44BC71892
:104FC00002E01A983622171A0F9D049C16E00C9FD7
:104FD0000F9C013FBC4201DBE51B06E00F9A159BCD
:104FE000B81A1E1815960F9700250C99002903DA98
:104FF000049C0027641A01E0049C0C9F049E0D9AF7
:10500000F1190491D719079801210D9700F05FFE5F
:10501000061C02E00F9D049C149E002C0CD00D9BDE
:10502000002B09DDA34200DD231C04980D9AC11A50
:10503000D71A0491E41A0D970F9B002B21DD1498C9
:10504000002818D0002D10DD311C2A1C079800F014
:10505000D8FE061C311C0B9A079800F041FE0B99F4
:10506000071C079800F064FD0B970F994A1B08D0A6
:1050700007980B9902E007980B990F9A00F0C1FE70
:105080000B900798012100F022FE159A051C002ABA
:1050900005DD291C0798159A00F0B3FE051C229B1C
:1050A0000027012B10DC0898B8420DD109990A039A
:1050B000BA4209D1774B194206D0049F0D980137A7
:1050C000013004970D90012715990122002908D07D
:1050D0002A6903329300E818406800F0B1FD2021EE
:1050E0000A1A0D991F23501818400DD02022131AA8
:1050F000042B06DD1C23049A181A13180493241891
:1051000008E0042B08D0181C04991C300A180D99CB
:105110000492241808180D90049A002A04DD0798B8
:105120000B9900F0B1FE0B900D9A002A04DD291CAA
:10513000079800F0A9FE051C189900291BD00B98B0
:10514000291C00F0F3FE002815DA069B0A22013B19
:10515000069307980B99002300F0F4FC149A0B9027
:105160000E980C90002A06D0311C07980A220023C2
:1051700000F0E8FC061C0C9B002B29DC229902297C
:1051800026DD002B11D1291C079805220C9B00F06D
:10519000D9FC051C291C0B9800F0C8FE00280CDC6B
:1051A00003E0351C00E000252E1C23980A9FC14314
:1051B00006910AE0109F351C06970A9B069A312734
:1051C0001F7001321F1C0137069200240494FFE077
:1051D0001498002801D10A9FB6E0002C05DD311C8F
:1051E0000798221C00F050FE061C301C002F11D026
:1051F0007168079800F074FC3369311C0233041C99
:105200000C319A000C30FEF7A7FA0798211C0122F6
:1052100000F03AFE0A9F0496061C291C0B98FFF723
:10522000BBFA04990E90041C0B9800F07FFE291C19
:105230000F90321C079800F095FEC1681490012071
:1052400030340D90002904D10B98149900F06EFEB3
:105250000D900798149900F06BFC0D9A229B1A434D
:105260001AD108990120084216D1392C3ED00F9B43
:10527000002B32DD0E9C31342FE0C046C046C046C4
:1052800000000000000024400000000000000000BA
:10529000330400000000F07F0F9A002A06DB229BF7
:1052A0001A431DD108990120084219D10D9908947B
:1052B000002912DD0B990798012200F0E5FD291C59
:1052C0000B9000F033FE002802DC06D1E30704D582
:1052D0000E9C089A3134392A08D03C70013777E0A7
:1052E0000D9B7A1C002B09DD392C03D139243C702D
:1052F000013756E001343C70171C69E00A983C7095
:10530000111A171C0C9A91423BD007980B990A224C
:10531000002300F017FC049C0B900798B44206D1C0
:10532000211C0A22002300F00DFC049074E704996C
:105330000A22002300F006FC311C04900A22079880
:10534000002300F0FFFB67E7291C0B98FFF724FA06
:10535000041C30340A9A0C993C700137BB1A8B42FA
:1053600007DA07980B990A22002300F0EBFB0B9059
:10537000EAE70C98002800DC01200A9F00223F1871
:1053800004920B990798012200F07EFD291C0B90D6
:1053900000F0CCFD002804DC14D1E00701D411E0BA
:1053A000071C781E0178392909D10A9A9042F7D151
:1053B000069B0A9C013331200693207008E00131DE
:1053C000017005E07B1E1878302801D11F1CF9E719
:1053D0000798291C00F0ACFB002E0FD0049D002D77
:1053E00005D0B54203D00798291C00F0A1FB07980F
:1053F000311C00F09DFB01E01099069107980B9974
:1054000000F096FB069B249A2698002601333E70F6
:105410001360002803D0076001E0024E0A960A9844
:105420001DB0F0BD6C9B0000F8B50D1C041C00F015
:1054300052FB204E0320B3681F4A5F688743B918A8
:105440004D1B2B0B1D48013B1D03854204DC201C1A
:1054500000F042FB00202BE00021201C00F060FF48
:10546000B268D1198842F2D16942201C00F058FF7D
:10547000013010D1201C002100F052FFB368C71A80
:105480000F2FE4DD0E490F4A0E680125801B2F43C4
:1054900010605F60DBE70B48B36802687F1B012682
:1054A000551B374305605F60201C00F015FB301C66
:1054B000F8BDC046C4040020EF0F0000FF0F00003D
:1054C000CC080020400B0020F7B5041C0D1E00D1B5
:1054D000A8E000F000FB291C08394F6801223B1CA2
:1054E0009343C8184668504A0325AE439568AC46B6
:1054F00001252F4060451AD1F618002F06D1086803
:10550000091ACD688F683618FD60AF6001233343F8
:1055100091604B6045490A68964204D3444801684B
:10552000201CFFF781FF201C00F0D6FA7AE000254E
:1055300046600195AF420DD10F680825C91BDB19E4
:105540008F68AD18AF4203D0CD68FD60AF6001E059
:105550000127019785196D6801273D4210D1019DF2
:105560009B198668002D08D1324DAE4205D1F160FD
:10557000B160CE608E60019702E0C068F060866026
:1055800001273E1C01981E434E60CB500028CAD113
:10559000294DAB420DD8D80856688510AF40374327
:1055A0005760C700D2199368CA608B60D960916058
:1055B000B9E75F0A042F02D89D09383516E0142F89
:1055C00002D83D1C5B3511E0542F02D81D0B6E35FF
:1055D0000CE0AA267000874202D8DD0B773505E083
:1055E000164E7E25B74201D89D0C7C35EF00D619AA
:1055F000B068B0420BD1AD1001275368AF403E1CDC
:105600001E435660021C08E08068B04204D0456822
:1056100003229543AB42F7D3C268CA608860C16079
:10562000916080E7F7BDC046C4040020D008002088
:105630003C0B0020CC040020FF01000054050000BA
:1056400038B5141C0C4D01D1281C13E0101C0B495B
:1056500000F078FE0028F7D0201C291C00F072FE14
:105660000028F1D0201C064900F06CFE434258414E
:105670004042284038BDC046189B00007B9B00007C
:10568000829B00000048704748040020014B186AC4
:105690007047C04648040020014824307047C04687
:1056A0004804002000207047014844307047C0463D
:1056B0004804002008B50A1C0349031C0868191C8B
:1056C000FFF7BEFF08BDC046180000200148443067
:1056D0007047C04648040020F0B50B1C87B00B3360
:1056E0000390162B04D907229343019302D504E0BB
:1056F00010240194019E8E4203D203990C250D6063
:10570000C6E1039800F0E7F9AE480199AE4C81423A
:105710000FD8CA08D5006319DD689D4205D1281C41
:105720006D6908300232854241D069680324A14383
:1057300028E0019D6F0AEA08002F1FD0042F03D82C
:10574000019FBA09383219E0142F02D83A1C5B3293
:1057500014E0542F03D8019D2A0B6E320EE0AA23C9
:105760005A00974203D80199CA0B773206E0974E48
:105770007E22B74202D80198820C7C32D300E31813
:10578000DD6808E0EF68AB686918DF60BB602BE09C
:10579000002EF7DAED689D4208D068680326019F65
:1057A000B043011CC61B0F2EF2DD013A0132271C4B
:1057B00025690837BD4263D0696803260198B14363
:1057C0000B1C091A0F290ADD01222B1810430A436A
:1057D000686063612361DF609F605A6083E0676196
:1057E0002761002905DBE9184E6801203043486035
:1057F0005BE1774FBB420BD8DB089910012067684B
:105800008840061CDB003E43E7186660B96833E059
:10581000590A042902D89809383016E0142902D808
:10582000081C5B3011E0542902D8180B6E300CE0D4
:10583000AA267000814202D8D80B773005E0634F6A
:105840007E20B94201D8980C7C30C1006618B1683E
:10585000B1420BD180100123676883401E1C3E4378
:1058600066600F1C08E08968B14204D04F680320CD
:105870008743BB42F7D3CF68EF60A960BD60CD60BE
:10588000951001216668A9400B1EB34258D80E42FC
:1058900005D1032082435B0004321E42FBD0D700B7
:1058A0003D19AC460495171C049EF56800E0ED68B0
:1058B00004980321854225D06868019E88430290A0
:1058C000811B0F2911DDAB19E868321CAE68012776
:1058D0003A43F0608660636123610F4308346A6075
:1058E000DC609C605F605950DFE00029DFDB029ADA
:1058F000E868AC186768AE6801233B436360F060FA
:105900008660D2E00835013704950F42CCD1664657
:10591000900703D162689A43626005E0351C3668DF
:10592000083D013AAE42F3D060685B00834207D87D
:10593000002B05D03A1C1842B1D104325B00FAE7C3
:10594000A66803237168019F99430291B94203D36A
:10595000CB1B0F2B00DD9DE002981E4F1E49351812
:10596000019A3B6888680595D318421C01D1103311
:1059700003E01A4D5A19130B1B030493039804995F
:1059800000F0CEFC051C431C74D00599884201D25E
:10599000A6426FD17A68049883187B60059FBD4248
:1059A00008D1290506D1029EA56801228419144355
:1059B0006C6055E0084C074FA068013010D1A5601D
:1059C00012E0C046F7010000C404002054050000A6
:1059D000FF0100003C0B0020C40800200F10000055
:1059E000059AA91A5B187B60072000222840904284
:1059F00002D00824221AAD188021049C4B01D01833
:105A00002A1911050B0DC41A211C039800F088FCFB
:105A1000421C01D1281C00247A68401BA11879601F
:105A20000319254F01221343BD606B60BE4217D09E
:105A3000029C0F2C01D86A601CE0029D77680C3D27
:105A400007218D433A40701905232A437260436051
:105A500083600F2D04D9311C08310398FFF734FD02
:105A6000164F7B68F96A8B4200D9FB62386B834220
:105A700000D93B63104D0324AE68019F7268A243B6
:105A8000D31BBA4201D30F2B04DC039800F024F897
:105A900000200FE00848019E8568019A0121AC189A
:105AA0000E430B436E6084606360039800F014F84B
:105AB000281C083007B0F0BDC40400203C0B0020B7
:105AC000C9B28218904204D003788B4202D00130D0
:105AD000F8E70020704770477047000000000000A2
